:100000000C942A001895000018950000189500001F
:10001000189500001895000018950000189500002C
:10002000189500001895000018950000189500001C
:10003000189500001895000018950000189500000C
:1000400018950000189500001895000018950000FC
:10005000189500008FE58DBFC8E3E0E24E2E88E0E2
:100060008EBFD8E0F8E05F2EA89584B7082E877F72
:1000700084BF88E1992781BD91BDEEEFF7E0A0E64E
:10008000B0E088278D933197E9F70E94FA00662443
:100090008CE00E9448010E94E50083E886B980E474
:1000A00087B9379A0E945E000E948D0088EC90E02C
:1000B0000E9475010C945200F894FFCF07B1007EA6
:1000C000076007B90E946702A0E6B0E08D939C9399
:1000D000EAEBF7E00E94D003E0E6F0E0D190E080A8
:1000E000FF2400270E940C030E949203EDE0F0E041
:1000F000A2E6B0E00E94CE02EEEBF7E00E94D00351
:10010000E2E6F0E00E94E2020E943903EDE0F0E056
:10011000A6E6B0E00E94CE0208958FE711E00E94AB
:10012000F400E2ECF7E00E94DE00A8E0B8E0AF9354
:10013000BF93E6E6F0E00E94E2020E94840111E033
:1001400001E0BF91AF910E948102E8E0F8E0A8E0F1
:10015000B8E00E94C9020E94D600EAECF7E00E94D3
:10016000DE008FEB11E00E94F400E2ECF7E00E9469
:10017000DE00A8E0B8E0AF93BF93E2E6F0E00E94B3
:10018000E2020E94840111E001E0BF91AF910E9460
:100190008102E8E0F8E0A8E0B8E00E94C9020E940D
:1001A000D600ECECF7E00E94DE000895A8E0B8E08D
:1001B0008D91882311F066D0FBCF08950E947002C4
:1001C000802D11F05FD0FACF089581E061D00FD07B
:1001D00080E85EC08FE7213039F08FEB223021F0CC
:1001E0008FE8233009F08FEC810F0C94480183E0F5
:1001F00099277BC08AEF90E00E9475018F9A8E9AB2
:100200008D9A8C9A8A9A889A909885E090E00E94BC
:100210007501929897989698959A949A929AEF93D6
:10022000FF93E5E1F0E00E946901FF91EF91929860
:1002300059D0929AEF93FF93E5E1F0E00E946901B3
:10024000FF91EF9192984ED0929AEF93FF93E5E150
:10025000F0E00E946901FF91EF91929843D0949849
:10026000929AEF93FF93E5E1F0E00E946901FF911C
:10027000EF91929837D088E20BD08EE009D086E0DB
:1002800007D00895909A829505D004D02BD0089578
:100290009098F9CF859510F4949A01C0949885951B
:1002A00010F4959A01C09598859510F4969A01C01E
:1002B0009698859510F4979A01C09798929AEF9323
:1002C000FF93E5E1F0E00E946901FF91EF919298C0
:1002D00008953197F1F70895689462F80895E894C5
:1002E00062F8089581E090E000C0EF93FF93EE275D
:1002F000E82BE92B31F0EAEFF0E03197F1F70197C5
:10030000D1F7FF91EF9108958DE207FD8D938F2D29
:10031000881F802F881F8F57082F6894F7F8802F29
:1003200087FF15C080958395082F80E38D938EE21B
:100330008D93802F815228F080E38D9399279C9391
:10034000089544270A95802F09F196D01FC0805246
:1003500030F09EE49D9381E48D939D93EFCF4427ED
:10036000DF92EF92FF920F938FE1801B11F0082F25
:1003700083D089D09EE29D930F91FF90EF90DF9004
:1003800044270395003209F4D7CF2BD03F93E8E1FF
:10039000F4E038E12F2D1E2D0D2DFF24EE24DD2459
:1003A0004427000F111F221FA8F42F923F920E9492
:1003B0007002102C0E947002202C0E947002302CBF
:1003C0000E9470023197410DD21CE31CF01C3F903B
:1003D0002F9001C0339631963A9519F73F9107D087
:1003E000AFCFDD0CEE1CFF1C0A95D9F7089500274E
:1003F00019E058D08F93802B11F0039501C08F9195
:100400001A95B9F7802F882309F496CF8F91805DD4
:100410008D930A95D9F792CF0065CD1D80B2E60E77
:1004200040597307A0ACB90350D6DC01286BEE002D
:1004300094357700CA9A3B0065CD1D00B2E60E00E8
:1004400059730700ACB90300D6DC01006BEE000065
:10045000357700009A3B0000CD1D0000E60E00003D
:1004600073070000B9030000DC010000EE0000008B
:10047000770000003B000000F694E794D79447957E
:100480000A95D1F7089500270DD08F9303958F2DEE
:100490008E298D29842BC1F78F91805D8D930A95CC
:1004A000D9F74CCF1F930F93002710E2440FDD1CA8
:1004B000EE1CFF1C001F802F9AE0890B10F0082F04
:1004C00043951A9599F7802F0F911F910895369AA9
:1004D0003699FECF369A3699FECF84B195B10895FC
:1004E000C89531960020089599278D91939588237A
:1004F000E1F7939511968C9311978E919A95D1F778
:100500000895EA2FFB2F00244C918D9103948E3295
:10051000E1F711248D9113948823E1F71A941016B2
:1005200040F41197202F2119239580E38D932A956C
:10053000E9F7113039F59927AE2FBF2FA00DB91F5C
:10054000A00FB91F8C919C93853308F421C031E032
:100550008E918E32E9F38D3241F0830F8A3319F494
:1005600080E331E001C033278C93AE1789F7332342
:1005700041F0AE2FBF2FB8DF81E34D3209F4319641
:10058000808308958827E00DF81FE00FF81F80830F
:10059000089581918D938823E1F7089594E08191E6
:1005A0008D939A95E1F70895B7FE089590E8B916EE
:1005B00011F4D0FE08959FEFD91AE90AF90A09F457
:1005C00003950895D190E190F190019108952191C2
:1005D0003191419151910895502F2D2D3E2D4F2D48
:1005E000612F0895652F90E8440F551F5927990FE3
:1005F00047956078102F90E8FF0C001F0927990F8E
:10060000F794107800380895FF0C90E89027110FA8
:100610009795F794092F08951127BD2CDE2CEF2C08
:10062000F02E0EE1FF2039F4FE2CED2CDB2CBB2448
:100630000850C2F752C032F00A95BB0CDD1CEE1C0C
:10064000FF1CF9CFB1DFE0CF2DEC3CEC4CEC5DE3CF
:1006500066270FC0B7DFC0DFDD24EE2490E8F92E57
:100660000FE307C0B4DF05C02227332740E251E47F
:100670006627552351F1002381F1B4DF71F116276C
:10068000005850580894050B18F407FD03C025C006
:1006900007FD23C0469537952795F694E794D794A0
:1006A00025D0FF202AF0DD0CEE1CFF1C015073F05A
:1006B0009D2D969548F0DD203AF4EE202AF491E045
:1006C000D90E9927E91EF91E9FCF07C09FE7092F72
:1006D000F92A9FEFD92EE92E0895DD24EE24FF2478
:1006E0000027112708950FE79FEFF2CF9F929924DB
:1006F000AA24BB2488E1D216E306F40628F0D21A15
:10070000E30AF40A089401C08894991CAA1CBB1C33
:10071000DD0CEE1CFF1C8A9571F7D92CEA2CFB2C02
:100720009F9008955FDFD9F05038C9F01627005820
:10073000952F90580894091F12F418F40EC008F071
:100740000EC00FD0FF202AF0BB0CDD1CEE1CFF1CDE
:1007500002C0039513F028DF57CF0C9466030C9466
:100760006D039F92FF92EF928D2DFF24EE24DD24E6
:10077000BB2493E0849F1001829FB00CD11CE21C2B
:10078000F31C839FD00CE11C2224F21C9A9531F0BB
:10079000BD2CDE2CEF2CFF248F91ECCF9F90089581
:1007A0000E947002202D0E947002302D0E94700263
:1007B000402D0E947002502D089500409C40000082
:1007C0007A44496E7075743A200056006D560000E8
:00000001FF
